:100000000C9465000C948D000C948D000C948D0064
:100010000C948D000C948D000C948D000C948D002C
:100020000C948D000C9404030C948D000C9412021B
:100030000C9444020C948D000C948D000C948D0053
:100040000C948D000C948D000C948D000C948D00FC
:100050000C948D0000000002000000000000000071
:100060000504000700000000000000000000000080
:100070000000000001020408102040800102040872
:100080001020408001020408102040800102040872
:100090001020408002020202020202020404040450
:1000A0000404040403030303030303030101010124
:1000B0000101010100003B00380035003200000062
:1000C0003A00370034003100740211241FBECFE51E
:1000D000D4E0DEBFCDBF10E0A0E6B0E0EAE4F8E097
:1000E00002C005900D92A63CB107D9F721E0A6EC1D
:1000F000B0E001C01D92AC36B207E1F710E0C5E6F2
:10010000D0E004C02197FE010E941D04C436D1072F
:10011000C9F70E94F5020C9423040C9400000F937D
:100120001F93CF93DF9326E040E855E260E070E054
:1001300086EC90E00E94B10161E0809164000E9431
:10014000900361E0809160000E94900361E08091E3
:1001500062000E94900361E0809162000E94CC03E3
:1001600060E0809160000E94CC0360E080916400B8
:100170000E94CC03C6E6D0E000E010E0FE01E00FF4
:10018000F11F61E080810E9490030E5F1F4F0830D5
:100190001105A1F760E088810E94CC0360E08A81AC
:1001A0000E94CC0360E08C810E94CC0360E08E81D1
:1001B0000E94CC03289680E0C639D807E9F6DF9183
:1001C000CF911F910F91089566E970E086EC90E061
:1001D0000E94E202F9CFFC01918D228D892F90E0DF
:1001E000805C9F4F821B91098F7399270895FC01B2
:1001F000918D828D981731F0828DE80FF11D858DDC
:1002000090E008958FEF9FEF0895FC01918D828D0E
:10021000981761F0828DDF01A80FB11D5D968C915A
:10022000928D9F5F9F73928F90E008958FEF9FEF65
:1002300008958AE692E0892B49F080E090E0892BCE
:1002400029F00E946A0281110C9400000895FC01BB
:10025000848DDF01A80FB11DA35ABF4F2C91848D4F
:1002600090E001968F739927848FA689B7892C9384
:10027000A089B1898C9180648C93938D848D98131F
:1002800006C00288F389E02D80818F7D80830895E8
:10029000EF92FF920F931F93CF93DF93EC0181E0D6
:1002A000888F9B8D8C8D981305C0E889F989808192
:1002B00085FD24C0F62E0B8D10E00F5F1F4F0F73CE
:1002C0001127E02E8C8DE8120CC00FB607FCFACF78
:1002D000E889F989808185FFF5CFCE010E94270149
:1002E000F1CF8B8DFE01E80FF11DE35AFF4FF08235
:1002F0000B8FEA89FB898081806207C0EE89FF89C4
:100300006083E889F98980818064808381E090E05E
:10031000DF91CF911F910F91FF90EF900895CF93B0
:10032000DF93EC01888D8823C9F0EA89FB898081FD
:1003300085FD05C0A889B9898C9186FD0FC00FB6CF
:1003400007FCF5CF808185FFF2CFA889B9898C9110
:1003500085FFEDCFCE010E942701E7CFDF91CF913E
:100360000895CF92DF92EF92FF921F93CF93DF9386
:10037000EC016A017B01122F60E874E88EE190E0E5
:10038000A70196010E94FB03DA01C9010197A109A7
:10039000B109B695A795979587959C01E889F98944
:1003A00082E08083211580E13807A8F0E889F98987
:1003B000108260E472E48FE090E0A70196010E9451
:1003C000FB03DA01C9010197A109B109B695A79507
:1003D000979587959C01EC85FD853083EE85FF859B
:1003E0002083188E1068EC89FD891083EA89FB89C7
:1003F000808180618083EA89FB8980818860808335
:10040000EA89FB89808180688083EA89FB89808111
:100410008F7D8083DF91CF911F91FF90EF90DF90D0
:10042000CF9008951F920F920FB60F9211242F9321
:100430008F939F93EF93FF93E091D600F091D700B5
:100440008081E091DC00F091DD0082FD12C090819E
:100450008091DF008F5F8F732091E000821751F051
:10046000E091DF00F0E0EA53FF4F958F8093DF00CB
:1004700001C08081FF91EF919F918F912F910F90FB
:100480000FBE0F901F9018951F920F920FB60F92EC
:1004900011242F933F934F935F936F937F938F9389
:1004A0009F93AF93BF93EF93FF9386EC90E00E94EE
:1004B0002701FF91EF91BF91AF919F918F917F9114
:1004C0006F915F914F913F912F910F900FBE0F90C1
:1004D0001F90189586EC90E00E94EB0021E0892B9C
:1004E00009F420E0822F0895E6ECF0E013821282F6
:1004F00088EE93E0A0E0B0E084839583A683B78381
:100500008AEA90E09183808380E490E095878487F5
:1005100029E230E0378726872BE230E0318B208BD1
:100520002AE230E0338B228B958B848B8CE290E037
:10053000978B868B118E128E138E148E0895CF9208
:10054000DF92EF92FF920F931F93CF93DF936C0193
:100550007A018B01C0E0D0E0CE15DF0581F0D80133
:100560006D918D01D601ED91FC910190F081E02D0E
:10057000C6010995892B11F02196EECF7E01C701A6
:10058000DF91CF911F910F91FF90EF90DF90CF906F
:1005900008956115710579F0FB0101900020E9F7DC
:1005A0003197AF01461B570BDC01ED91FC910280A6
:1005B000F381E02D099480E090E0089566EB70E00F
:1005C0000C94C9020F931F93CF93DF93EC010E9409
:1005D000C9028C01CE010E94DE02800F911FDF91C3
:1005E000CF911F910F91089508950E944E030E948C
:1005F000F4020E948F00C9E1D1E00E94E40020973C
:10060000E1F30E941901F9CF1F920F920FB60F92DA
:1006100011242F933F938F939F93AF93BF93809118
:10062000640190916501A0916601B09167013091DC
:10063000630126E0230F2D3720F40296A11DB11D82
:1006400005C029E8230F0396A11DB11D2093630166
:100650008093640190936501A0936601B093670154
:100660008091680190916901A0916A01B0916B013C
:100670000196A11DB11D8093680190936901A0931B
:100680006A01B0936B01BF91AF919F918F913F91A0
:100690002F910F900FBE0F901F901895789483B7ED
:1006A000826083BF83B7816083BF83B7806483BF69
:1006B00083B7886083BF89B7816089BF1EBC8EB550
:1006C00082608EBD8EB581608EBD8FB581608FBD1D
:1006D00085B5846085BD85B5806485BD329A319AC3
:1006E0003098379A1AB80895843059F028F4813038
:1006F00099F0823089F00895853031F0873041F0EB
:1007000008958FB58F7702C08FB58F7D8FBD089507
:1007100085B58F7D85BD089583B78F7D83BF08958F
:10072000CF93DF9390E0FC01EC58FF4F2491FC0144
:10073000EC56FF4F8491882361F190E0880F991F58
:10074000FC01E254FF4FC591D491FC01EC54FF4FE2
:10075000A591B491611109C09FB7F8948881209543
:1007600082238883EC912E230BC0623061F49FB703
:10077000F8948881322F309583238883EC912E2B37
:100780002C939FBF06C08FB7F894E8812E2B288347
:100790008FBFDF91CF9108951F93CF93DF93282FC1
:1007A00030E0F901EC5AFF4F8491F901EC58FF4F0A
:1007B000D491F901EC56FF4FC491CC23C1F0162F10
:1007C00081110E947403EC2FF0E0EE0FFF1FEC5438
:1007D000FF4FA591B4919FB7F894111104C08C916B
:1007E000D095D82302C0EC91DE2BDC939FBFDF9124
:1007F000CF911F910895A1E21A2EAA1BBB1BFD01E8
:100800000DC0AA1FBB1FEE1FFF1FA217B307E407EF
:10081000F50720F0A21BB30BE40BF50B661F771F47
:10082000881F991F1A9469F7609570958095909527
:100830009B01AC01BD01CF010895EE0FFF1F059094
:0A084000F491E02D0994F894FFCF25
:10084A000C000B000A0019001800170016001F0000
:10085A001E001D001C002500240023002200280081
:10086A0029002A002B002E002F003000310004003E
:10087A0003003500340048656C6C6F004D6F766577
:10088A0020646F6E65000000000048019F02EB00C3
:10089A000501F7008F010D0A006E616E00696E6630
:0608AA00006F76660000FD
:00000001FF
