S01700004D6F746F72436F6E74726F6C6C65722E73726563D8
S11300000C942C000C9454000C9454000C94540044
S11300100C9454000C9454000C9454000C9454000C
S11300200C9454000C9454000C9454000C945400FC
S11300300C9454000C9454000C9454000C945400EC
S11300400C9454000C9454000C9454000C945400DC
S11300500C9454005F00730011241FBECFE5D4E05C
S1130060DEBFCDBF10E0A0E6B0E0E8EBF1E002C0F7
S113007005900D92A036B107D9F720E0A0E6B0E0D4
S113008001C01D92AD39B207E1F710E0CBE2D0E038
S113009004C02197FE010E94C900CA32D107C9F7E2
S11300A00E9456000C94CF000C9400001092600043
S11300B060E875E280E090E00E948200FFCF0F9339
S11300C01F93CF93DF93C1E6D0E00DE910E0CE019A
S11300D00E94A5002A96C017D107C9F7DF91CF91D6
S11300E01F910F910895CF93DF93CDE9D0E02A9724
S11300F0CE010E94A60080E0C136D807C1F7DF9187
S1130100CF910895DC01CB01880F991FAA1FBB1F53
S1130110880F991FAA1FBB1F9C01AD01220F331F1B
S1130120441F551F220F331F441F551F60E072E107
S11301308AE790E00E94A7002150310930BD29B917
S113014088E18AB986E080BD089508950895A1E202
S11301501A2EAA1BBB1BFD010DC0AA1FBB1FEE1F3D
S1130160FF1FA217B307E407F50720F0A21BB30B88
S1130170E40BF50B661F771F881F991F1A9469F704
S113018060957095809590959B01AC01BD01CF0160
S11301900895EE0FFF1F0590F491E02D099410E0EF
S11301A0CBE2D0E004C0FE010E94C9002196CC320B
S10B01B0D107C9F7F894FFCF51
S9030000FC
