:10000000F5C0000021C100001FC100001DC100009B
:100010001BC1000019C1000017C1000015C100007C
:1000200013C1000011C100000FC100000DC100008C
:100030000BC1000009C1000007C1000005C100009C
:1000400003C1000001C10000FFC00000FDC00000AE
:10005000FBC00000F9C00000F7C0000022C400008F
:10006000F3C00000E8C30000BDC30000EDC0000005
:10007000EBC00000E9C00000E7C00000E5C00000E0
:10008000E3C00000E1C00000DFC00000DDC00000F0
:10009000DBC00000D9C00000D7C00000D5C0000000
:1000A000D3C00000D1C00000CFC00000CDC0000010
:1000B000CBC00000C9C00000C7C00000C5C0000020
:1000C000C3C00000C1C00000BFC00000BDC0000030
:1000D000BBC00000B9C00000B7C00000B5C0000040
:1000E000B3C0000000000A0B02090C0D0E08070344
:1000F00004010000000000000000000000000000FB
:1001000000000000000000000000000000000000EF
:1001100012111000000000000000000000000000AC
:100120000000000000000000000000002200250088
:1001300028002B002E0031003400020100000501D0
:1001400008010B0100002100240027002A002D00D7
:100150003000330001010000040107010A01050518
:100160000505070508080808020202020A0A08082D
:10017000040404040101010101010101030303035B
:1001800003030303040707070C0C0C0C0C0C0C0CEA
:100190000202020206060606060606060B0B0B0BFB
:1001A0000B0B0B0B01021020200808102040102020
:1001B000408002010201080402010102040810202B
:1001C0004080804020100804020180040201804029
:1001D0002010080402010804020101020408102092
:1001E000408001020408102040809B0411241FBE9F
:1001F000CFEFD1E2DEBFCDBF00E00CBF23E0AAE627
:10020000B2E001C01D92A839B207E1F712E0A0E008
:10021000B2E0EEE1F0E100E00BBF02C007900D920A
:10022000AA36B107D9F710E0C6EFD0E000E005C06C
:1002300021970109802FFE01D4D6C53FD10780E068
:100240000807B1F7B7D3E9C6DBCEE9E7F2E0A0894A
:10025000B18982E08C93A485B5851C92A685B7856B
:100260008FEC8C93108EA489B58986E08C93A2893B
:10027000B3898C9180618C93A289B3898C918860B9
:100280008C93A289B3898C9180688C930288F389BE
:10029000E02D80818F7D8083089590E0FC01EC55F6
:1002A000FE4F2491825A9E4FFC018491882399F03D
:1002B00090E0880F991FFC01EC5BFE4FA591B49173
:1002C000FC01E65DFE4F859194918FB7F894EC9117
:1002D000E22BEC938FBF0895AF92BF92CF92DF9243
:1002E000EF92FF920F931F93CF93DF936C017B01EB
:1002F0008B01040F151FEB015E01AE18BF08C0177C
:10030000D10759F06991D601ED91FC910190F081EE
:10031000E02DC6011995892B79F7C501DF91CF91A1
:100320001F910F91FF90EF90DF90CF90BF90AF9013
:100330000895FC01538D448D252F30E0842F90E0EB
:10034000821B930B541710F0CF96089501970895D0
:10035000FC01918D828D981761F0A28DAE0FBF2F99
:10036000B11D5D968C91928D9F5F9F73928F90E0EF
:1003700008958FEF9FEF0895FC01918D828D98175E
:1003800031F0828DE80FF11D858D90E008958FEF9B
:100390009FEF0895FC01918D228D892F90E0805C64
:1003A0009F4F821B91098F739927089589E792E0E7
:1003B000F1DF21E0892B09F420E0822F0895FC0170
:1003C000A48DA80FB92FB11DA35ABF4F2C91848DB6
:1003D00090E001968F739927848FA689B7892C9313
:1003E000A089B1898C91837080648C93938D848D66
:1003F000981306C00288F389E02D80818F7D808369
:100400000895EF92FF920F931F93CF93DF93EC0128
:1004100081E0888F9B8D8C8D98131AC0E889F989AB
:10042000808185FF15C09FB7F894EE89FF896083AE
:10043000E889F98980818370806480839FBF81E02F
:1004400090E0DF91CF911F910F91FF90EF90089571
:10045000F62E0B8D10E00F5F1F4F0F731127E02E4C
:100460008C8D8E110BC00FB607FCFACFE889F98985
:10047000808185FFF5CFCE01A2DFF2CFEB8DEC0FAF
:10048000FD2FF11DE35AFF4FF0829FB7F8940B8FB9
:10049000EA89FB8980818062D0CF682F89E792E06A
:1004A000B0CFCF93DF93EC01888D8823B1F0AA8978
:1004B000BB89E889F9898C9185FD03C0808186FD1F
:1004C0000CC00FB607FCF7CF8C9185FFF2CF80816F
:1004D00085FFEDCFCE0173DFEACFDF91CF91089595
:1004E00080E090E0892B21F061DF81110E94000003
:1004F00080E090E0892B49F080E090E0892B29F0A2
:100500000E94000081110E94000080E090E0892B91
:1005100049F080E090E0892B29F00E9400008111D1
:100520000E94000080E090E0892B49F080E090E09C
:10053000892B29F00E94000081110C94000008957D
:10054000282F30E0F901EC51FF4F9491F901EC555F
:10055000FE4F4491225A3E4FF9012491222309F47F
:1005600034C0992309F191509231F0F4E92FF0E071
:100570008827E354FD4F8F4F34C5EE02F202CF02BD
:10058000E602EA02D402F502FB02FF0205030903B8
:100590000D0313031703D4021B03210325038091CA
:1005A00080008F7780938000E22FF0E0EE0FFF1F36
:1005B000E65DFE4FA591B4918FB7F894EC9161116F
:1005C00048C040954E234C938FBF08958091800082
:1005D0008F7DE8CF80918000877FE4CF84B58F77CF
:1005E00084BDE2CF84B58F7DFBCF8091B0008F7743
:1005F0008093B000D9CF8091B0008F7DF9CF8091EA
:1006000090008F7780939000CFCF809190008F7D66
:10061000F9CF80919000877FF5CF8091A0008F77F0
:100620008093A000C1CF8091A0008F7DF9CF8091F1
:10063000A000877FF5CF809120018F7780932001E4
:10064000B3CF809120018F7DF9CF80912001877FEA
:10065000F5CF4E2BB8CF3FB7F89480916F029091B1
:100660007002A0917102B091720226B5A89B05C0DC
:100670002F3F19F00196A11DB11D3FBFBA2FA92F21
:10068000982F8827BC01CD01620F711D811D911D1E
:1006900042E0660F771F881F991F4A95D1F708958A
:1006A0008F929F92AF92BF92CF92DF92EF92FF9282
:1006B0004B015C01D0DF6B017C01CDDF6C197D0942
:1006C0008E099F09683E734081059105B0F321E0D2
:1006D000821A9108A108B10888EEC80E83E0D81EDE
:1006E000E11CF11C81149104A104B10431F7FF90C5
:1006F000EF90DF90CF90BF90AF909F908F90089534
:100700002FB7F89460916B0270916C0280916D022A
:1007100090916E022FBF0895FF920F931F93CF9376
:10072000DF93EC01F42E122F88810ADF6F2D8A816E
:1007300007DF612F8C8104DF602F8E81DF91CF91E5
:100740001F910F91FF90FCCEFC0101900020E9F772
:100750003197AF01481B590BBC0189E792E0BCCD32
:100760008F929F92AF92BF920F931F93CF93DF937D
:10077000CDB7DEB7A1970FB6F894DEBF0FBECDBFE1
:1007800019A2423008F44AE08E010F5D1F4F842EFB
:10079000912CB12CA12CA5019401EED3E62FB90127
:1007A000CA01EA30ECF4E05DD801EE938D01232B11
:1007B000242B252B81F790E080E0109711F0CD01DC
:1007C000C3DFA1960FB6F894DEBF0FBECDBFDF9199
:1007D000CF911F910F91BF90AF909F908F900895F0
:1007E000E95CE2CF1F920F920FB60F9211240BB665
:1007F0000F922F933F934F935F936F937F938F93BA
:100800009F93AF93BF93EF93FF9389E792E0D7DD78
:10081000FF91EF91BF91AF919F918F917F916F91D8
:100820005F914F913F912F910F900BBE0F900FBE94
:100830000F901F9018951F920F920FB60F921124D0
:100840000BB60F922F938F939F93EF93FF93E091AB
:100850008902F0918A028081E0918F02F0919002EA
:1008600082FD1DC09081809192028F5F8F732091D5
:100870009302821741F0E0919202F0E0E758FD4FB9
:10088000958F80939202FF91EF919F918F912F917D
:100890000F900BBE0F900FBE0F901F901895808188
:1008A000F2CF1F920F920FB60F9211242F933F9306
:1008B0008F939F93AF93BF9380916B0290916C0243
:1008C000A0916D02B0916E0230916A0223E0230F75
:1008D0002D3758F50196A11DB11D20936A02809312
:1008E0006B0290936C02A0936D02B0936E028091A4
:1008F0006F0290917002A0917102B0917202019604
:10090000A11DB11D80936F0290937002A09371029C
:10091000B0937202BF91AF919F918F913F912F91B0
:100920000F900FBE0F901F90189526E8230F029688
:10093000A11DB11DD2CFE9E7F2E01382128288EE49
:1009400093E0A0E0B0E084839583A683B78384E33B
:1009500092E09183808385EC90E09587848784EC96
:1009600090E09787868780EC90E0918B808B81EC7C
:1009700090E0938B828B82EC90E0958B848B86EC5D
:1009800090E0978B868B118E128E138E148EE6E17B
:10099000F3E016821782108611861286138614865B
:1009A000158616861786108A118A128A138A148A67
:1009B000158A0895CF93DF93CDB7DEB72C970FB686
:1009C000F894DEBF0FBECDBF789484B5826084BD3D
:1009D00084B5816084BD85B5826085BD85B5816043
:1009E00085BD80916E00816080936E0010928100C1
:1009F000809181008260809381008091810081607C
:100A0000809381008091800081608093800080913C
:100A1000B10084608093B1008091B00081608093C8
:100A2000B00080919100826080939100809191004C
:100A3000816080939100809190008160809390000C
:100A40008091A10082608093A1008091A1008160CB
:100A50008093A1008091A00081608093A00080918C
:100A60002101826080932101809121018160809326
:100A700021018091200181608093200180917A0082
:100A8000846080937A0080917A00826080937A00FB
:100A900080917A00816080937A0080917A008068EA
:100AA00080937A001092C10010925803109259035B
:100AB00010925A0310925B031092180310921903BC
:100AC00010921A0310921B031BDE6B017C014B0179
:100AD0005C0128EB820E2BE0921EA11CB11C10DEE3
:100AE0006C157D058E059F0528F086169706A806CD
:100AF000B906A8F768EE73E080E090E0D1DDA5DBF1
:100B0000FFDD609318037093190380931A03909389
:100B10001B0382E492E018DEF3DD6B017C014B01E4
:100B20005C013AE0830E911CA11CB11CE9DD6C153F
:100B30007D058E059F0528F086169706A806B9063E
:100B4000A8F781E080932C035CE5C52E53E0D52EF9
:100B500000E012E068E9662E63E0762E74EFA72EBF
:100B6000BB24B394AE014F5F5F4F7A01480158E058
:100B7000850E911C2701F801808191810E5F1F4F26
:100B8000F70180839183F2E0EF0EF11C86DBF80120
:100B9000329760E08081D4DC8016910661F7BA86D6
:100BA000A9868AE0F201D60101900D928A95E1F7BB
:100BB0002AE0C20ED11C6C147D04A1F682E06DDB2C
:100BC00083E06BDB42DB44EF242E33243394412C4F
:100BD000512C96DD672B682B692B09F4CBC090DD77
:100BE000009175021091760220917702309178027F
:100BF000601771078207930708F4E6C00091750239
:100C00001091760220917702309178026B017C017D
:100C1000C01AD10AE20AF30A970186010A3F1105B8
:100C20002105310508F4ADC060937502709376021A
:100C300080937702909378022092240330922503C8
:100C40004092260350922703109228031092290302
:100C500010922A0310922B0380911C0390911D0384
:100C6000A0911E03B0911F03809320039093210352
:100C7000A0932203B093230343DD60931C0370937E
:100C80001D0380931E0390931F033ADD60931803A6
:100C90007093190380931A0390931B0331DD6B014A
:100CA0007C0183E592E050DD4AE061E070E080E0A5
:100CB00090E056DD8AE592E047DD4AE0C701B601E3
:100CC0004FDD8CE592E040DD80911C0390911D0387
:100CD000A0911E03B0911F03A7019601281B390B99
:100CE0004A0B5B0BCA01B9014AE03ADD8CE592E0A0
:100CF0002BDD60911C0370911D0380911E03909168
:100D00001F030091200310912103209122033091B1
:100D10002303601B710B820B930B4AE021DD8EE5F0
:100D200092E012DDEDDC4AE01BDD80E692E00CDDB6
:100D300087E692E009DDE4DC4B015C017C016B019C
:100D400035E0C30ED11CE11CF11CDADC6815790515
:100D50008A059B0528F0C616D706E806F906A8F707
:100D6000CFDC60931C0370931D0380931E0390934C
:100D70001F0307C0C5DC623071058105910508F0CD
:100D80002ECF89E792E006DB892B09F43DC089E785
:100D900092E0DEDA4C019924A0907302B0907402C4
:100DA00041EA84169104C9F052EA8516910471F162
:100DB000E0EA8E169104C9F5AB28F9F0109274029E
:100DC0001092730260E014C0609375027093760213
:100DD000809377029093780211CFAA94AB2869F0A0
:100DE000CC24C394D12CD0927402C092730261E0DF
:100DF00082E0A6DB61E083E0A3DB80917302909147
:100E0000740280519F4F49DB6BDBE3CE22E0A216D8
:100E1000B10499F342E050E050937402409373029E
:100E200061E082E08DDB60E0E6CF51E0A516B10421
:100E300019F081EB90E0E7CF7C01F594E794E8941A
:100E4000E7F8FF24EA94E5E0EE1508F492C081701B
:100E5000992730E020E0281B390B220F331F2F5F2A
:100E60003F4FF2E3F29F6001F39FD00C11242E2D2F
:100E700030E04AE0E49E70011124C701845A9C4F7F
:100E80007C01D7FE03C0AA24AA94BA2CD7FE03C0C3
:100E9000D194C194D108712C612CEAE0E29FC00189
:100EA000E39F900D11249C012C593C4F3C872B87CC
:100EB000C614D70409F450C0EB85FC85808191816C
:100EC0008A0D9B1D9183808364E070E077D0813030
:100ED000910549F1D4F410E000E021E030E0892BE5
:100EE00031F1EB85FC85808191818A3091055CF53B
:100EF0008C599F4F918380836AE070E080E090E09E
:100F0000CFDBFFEF6F1A7F0AD3CF82309105B1F0AC
:100F100010E000E021E030E0039719F750E040E0F6
:100F200061E070E008C001E010E030E020E041E066
:100F300050E070E060E0C701EFDBD3CF01E010E0EC
:100F400030E020E0EBCF893EF3E09F07ACF2837006
:100F50009927EB85FC85CECF10E000E030E020E063
:100F600050E040E070E060E0C701D6DBC40140968D
:100F70004ACF82EB90E047CFA1E21A2EAA1BBB1BFF
:100F8000FD010DC0AA1FBB1FEE1FFF1FA217B30755
:100F9000E407F50720F0A21BB30BE40BF50B661F6B
:100FA000771F881F991F1A9469F76095709580952F
:100FB00090959B01AC01BD01CF01089597FB072ED1
:100FC00016F4009406D077FD08D013D007FC05D0A6
:100FD0003EF4909581959F4F0895709561957F4F50
:100FE0000895EE0FFF1F881F8BBF0790F691E02D2D
:100FF0001994AA1BBB1B51E107C0AA1FBB1FA61750
:10100000B70710F0A61BB70B881F991F5A95A9F7B1
:0E10100080959095BC01CD010895F894FFCF16
:10101E001A001C0016001800170019001B001D00F6
:10102E002400260020002200210023002500270096
:10103E002A002C002E0030002F0031002B002D0036
:10104E000000000001026C0199015102CA01A801C1
:10105E00BC01564D4450565F317C315F564D445065
:10106E00560A00564D4450455F003A323A007C0015
:0A107E005F564D445045000D0A0076
:00000001FF
