:100000000C942A000C9447000C9447000C94470071
:100010000C9447000C9447000C9447000C94470044
:100020000C9447000C94BC000C9447000C944700BF
:100030000C9447000C9447000C9447000C94470024
:100040000C9447000C9447000C9447000C94470014
:100050000C94470011241FBECFE5D4E0DEBFCDBF16
:1000600010E0A0E6B0E0ECE5F2E002C005900D92F1
:10007000A037B107D9F720E0A0E7B0E001C01D929A
:10008000A937B207E1F70E94AD000C942C010C9443
:100090000000282F30E093E0359527959A95E1F7F9
:1000A000482F4770F0E0E0E0243040F4220F331F87
:1000B000F901E859FF4F0190F081E02D81E090E0D7
:1000C00001C0880F4A95EAF79081613019F4892BB5
:1000D0008083089580958923FBCF282F30E093E01B
:1000E000359527959A95E1F7482F4770F0E0E0E0C5
:1000F000243040F4220F331FF901E05AFF4F0190E2
:10010000F081E02D81E090E001C0880F4A95EAF788
:100110009081613019F4892B80830895809589231B
:10012000FBCF10BC83E389B988E18AB986E880BD3A
:1001300008955F9BFECF8CB1089561E088E00E9436
:1001400049000C9491000E94990061E0823109F00D
:1001500060E088E00C946D0008950E9406010E9402
:10016000AC000E949D00C0E0D0E00E94A300209758
:10017000E1F30E940000F9CF1F920F920FB60F9289
:1001800011242F933F938F939F93AF93BF938091AD
:10019000710090917200A0917300B0917400309141
:1001A000700026E0230F2D3758F50296A11DB11DD2
:1001B000209370008093710090937200A09373005D
:1001C000B09374008091750090917600A0917700B3
:1001D000B09178000196A11DB11D80937500909398
:1001E0007600A0937700B0937800BF91AF919F9174
:1001F0008F913F912F910F900FBE0F901F901895E8
:1002000029E8230F0396A11DB11DD2CF789483B79F
:10021000826083BF83B7816083BF83B7806483BFFD
:1002200083B7886083BF89B7816089BF1EBC8EB5E4
:1002300082608EBD8EB581608EBD8FB581608FBDB1
:1002400085B5846085BD85B5806485BD329A319A57
:0C0250003098379A1AB80895F894FFCF40
:10025C003B003800350032003A00370034003100E2
:103E000001C0AEC011248FE594E09EBF8DBF84B782
:103E1000882361F0982F9A70923041F081FF02C0A0
:103E200097EF94BF282E80E0B6D0EAC085E08EBD23
:103E300082E08BB988E18AB986E880BD89E189B9D9
:103E40008EE0A9D0B89A84E028E13EEF44E051E04A
:103E50003DBD2CBD48BF08B602FEFDCF98B39527E7
:103E600098BBA8955F9902C0815091F78DD081349D
:103E7000A1F48AD0182F93D0123829F1113851F4B7
:103E800088E009C0853709F063C089D08EE178D019
:103E900084E976D083E074D060C0823411F484E188
:103EA00003C0853419F485E082D057C0853539F4D4
:103EB0006BD0C82F69D0D82FCC0FDD1F4DC08635F1
:103EC00021F484E074D080E0E6CF843681F55CD0C4
:103ED0005BD0182F59D0D82E012F90E6E92EF12C67
:103EE00053D0F70181937F010150D1F758D0F5E409
:103EF000DF1201C0FFCF40E050E063E0CE0130D0E0
:103F00007E0180E6C82ED12CF601419151916F01BE
:103F100061E0C70125D01250F2E0EF0EF11C111143
:103F2000F3CF40E050E065E0CE011AD016C08437F0
:103F300009F0A8CF29D028D0F82E26D030D08E0175
:103F4000F80185918F011CD0FA94F110F9CF05C0CA
:103F5000813511F488E01FD022D080E111D086CFC6
:103F6000FC010A0167BFE895112407B600FCFDCFEC
:103F7000667029F0452B19F481E187BFE895089513
:103F80005D9BFECF8CB908955F9BFECF5C9901C00D
:103F9000A8958CB1089598E191BD81BD0895F4DF95
:103FA000803219F088E0F7DFFFCF84E1E9CFCF93CB
:0C3FB000C82FEADFC150E9F7CF91F1CF34
:023FFE000008B9
:0400000300003E00BB
:00000001FF
