:100000000C942B000C9453000C9453000C9453004C
:100010000C9453000C9453000C9453000C94530014
:100020000C9453000C9422020C9453000C94530033
:100030000C9453000C9453000C9453000C945300F4
:100040000C9453000C9453000C9453000C945300E4
:100050000C945300E40011241FBECFE5D4E0DEBFB2
:10006000CDBF10E0A0E6B0E0E4E8F5E002C0059006
:100070000D92AA38B107D9F720E0AAE8B0E001C094
:100080001D92A93BB207E1F710E0CBE2D0E004C03B
:100090002197FE010E94BA02CA32D107C9F70E9415
:1000A00013020C94C0020C94000010BC83E389B9C5
:1000B00088E18AB986E880BD08959BB18CB98BB17F
:1000C00008955F9BFECF8CB108950E945500109259
:1000D0008B0010928A00089520918A0030918B0045
:1000E0008217130629F08130B9F038F08230E1F040
:1000F00080918A0080510C945D0010928B001092C8
:100100008A0060E0809161000E942C0161E0809192
:1001100060000E942C01ECCF81E090E090938B0076
:1001200080938A0061E0EECF82E090E090938B00B4
:1001300080938A0061E0809161000E942C0160E060
:10014000E6CFCF9340918A0050918B00413051050A
:1001500021F081EBCF910C945D00982F96959150F2
:100160009630E0F4C82F282F217030E0319521958A
:100170003109220F331F2F5F3F4F82E3829FB0016F
:10018000839F700D112426E0929FC0011124845793
:100190009F4F0E94A80180E18C0FDCCF82EBDACF69
:1001A0005F9B11C00E946100813A31F0823A39F0C0
:1001B000803A39F480E001C081E00C946C0082E068
:1001C000FCCF0C94A100089562E670E08CE890E00A
:1001D0000E94500166E670E082E990E00E945001C2
:1001E0006AE670E088E990E00E9450016EE670E0F7
:1001F0008EE990E00E94500162E770E084EA90E0AE
:100200000E94500166E770E08AEA90E00C94500189
:10021000282F30E093E0359527959A95E1F7482F00
:100220004770F0E0E0E0243040F4220F331FF90182
:10023000EE57FF4F0190F081E02D81E090E001C08A
:10024000880F4A95EAF79081613019F4892B8083F1
:10025000089580958923FBCF282F30E093E03595D2
:1002600027959A95E1F7482F4770F0E0E0E02430B9
:1002700040F4220F331FF901E658FF4F0190F0813F
:10028000E02D81E090E001C0880F4A95EAF7908167
:10029000613019F4892B8083089580958923FBCFE1
:1002A000EF92FF920F931F93CF93DF938C0184E61D
:1002B00090E0F801819391938F01EB017B01F4E0D1
:1002C000EF0EF11C8991F80181938F01FE013197A6
:1002D00061E080810E940801CE15DF0599F7DF916A
:1002E000CF911F910F91FF90EF900895CF92DF92E1
:1002F000EF92FF920F931F93CF93DF9302966C01BF
:10030000D0E0C0E0EE24E394F12C062F10E0B7011A
:100310000C2E02C0660F771F0A94E2F76023712348
:100320000C2E02C0759567950A94E2F7F60181914B
:100330006F010E942C012196C430D10541F7DF9155
:10034000CF911F910F91FF90EF90DF90CF90089584
:10035000AF92BF92CF92DF92EF92FF920F931F93D3
:10036000CF93DF93EC01CC24C394D12C77FF03C04F
:10037000CC24CA94DC2C8B0177FF03C01195019526
:100380001109F12CE12C84E0A82EB12CE016F10625
:10039000D9F1888199818C0D9D1D99838883B50140
:1003A0000E9492028130910559F104F569E0892B90
:1003B00019F188819981853F21E0920724F08370AB
:1003C000992799838883888199818A30910524F4BB
:1003D00088519C4F998388838FE19EE40197F1F7C0
:1003E00000C000009FEFE91AF90AD0CF82309105D2
:1003F00049F065E00397E9F6CE010E947601D9CF76
:100400006AE0FACF66E0F8CF60E0CE01DF91CF91ED
:100410001F910F91FF90EF90DF90CF90BF90AF9022
:100420000C94760108950E946C020E9412020E94B0
:100430006500C0E0D0E00E94D0002097E1F30E9468
:100440000000F9CF1F920F920FB60F9211242F9335
:100450003F938F939F93AF93BF938091B1009091FF
:10046000B200A091B300B091B4003091B00026E08A
:10047000230F2D3758F50296A11DB11D2093B00012
:100480008093B1009093B200A093B300B093B400F6
:100490008091B5009091B600A091B700B091B800DE
:1004A0000196A11DB11D8093B5009093B600A09355
:1004B000B700B093B800BF91AF919F918F913F91DA
:1004C0002F910F900FBE0F901F90189529E8230FC2
:1004D0000396A11DB11DD2CF789483B7826083BFEC
:1004E00083B7816083BF83B7806483BF83B788602D
:1004F00083BF89B7816089BF1EBC8EB582608EBD07
:100500008EB581608EBD8FB581608FBD85B58460ED
:1005100085BD85B5806485BD329A319A3098379A09
:100520001AB8089597FB072E16F4009407D077FDAC
:1005300009D00E94A60207FC05D03EF49095819553
:100540009F4F0895709561957F4F0895AA1BBB1B1F
:1005500051E107C0AA1FBB1FA617B70710F0A61BC3
:10056000B70B881F991F5A95A9F780959095BC01E4
:10057000CD010895EE0FFF1F0590F491E02D099431
:04058000F894FFCF1D
:100584001C1D08090A0B0C0D0E0F1F101112131459
:10059400151617070605040302013B003800350051
:0A05A40032003A0037003400310045
:00000001FF
